:20000000E43F00208188000001CA011001CA011001CA011001CA011001CA011001CA01106C
:1C00200001CA011001CA011001CA011001CA011001CA011001CA01103FCA011082
:20003C009EB52B482B49234A283008310860204917880968D7B1204A1268114216D01F4A7D
:20005C001268114204D11E4A1268128811420DD01E4A4FF488771468009709A301931A4FD0
:20007C00184B029018683A8801A3A0479EBDC046416363656C5F536572766963652E6300A8
:20009C00526567697374657265642063616C6C6261636B7320746F206170706C6963617405
:2000BC00696F6E2E2053747275637420257000C050C8000094C80000400500003C0500009C
:2000DC00440500006CC800008405000064C80000840E002000190020014A062108F0E4BBDE
:0400FC00FDAA000059
:200100003C000000000000000000000034010000000000000000000001000000000000006D
:1C01200000000000000000000000000001000000000000000800000000000000BA
:20013C00340000000000000000000000680100000000000000000000010000000000000005
:14015C00010000000000000000000000080000000000000086
:2001700030000000000000000000000098010000040000000000000001000000FFFFFFFFA5
:10019000FF00000001000000080000000000000057
:2001A0002C0000000000000000000000C4010000040000000000000001000000FFFFFFFF4D
:0C01C000FFFFFFFF08000000000000002F
:2001CC0034050000E401000099A1011095A70110A5C2011009B2011045B80110000000000B
:0801EC00000000002D000000DE
:2001F400280000000000000000000000140200000000000000000000FFFFFFFF00000000B1
:080214000800000000000000DA
:20021C00300500003002000069C201106DC101101FC2011095BA011000000000000000008E
:04023C002F0000008F
:20024000300500005402000075C20110A9B601109DBF011049B601100000000000000000DE
:04026000300000006A
:200264002400000000000000000000008002000000000000000000000000000008000000CC
:040284000000000076
:20028800240000000000000000000000A40200000000000000000000000000000800000084
:0402A8000000000052
:2002AC00240000000000000000000000C8020000000000000100000000000000080000003B
:0402CC00000000002E
:2002D00000000000881E002004000000000000000000000020000000700100003000000083
:2002F0001C020000901E00200400000000000000000000000C0000003004000018000000A6
:2003100040020000981E002004000000000000000000000024000000480400001800000029
:2003300000000000A01E002004000000000000000000000010000000A00100002C000000EE
:20035000CC010000A81E00200400000000000000000000002000000064020000240000002C
:20037000FFFFFFFFB01E0020040000000000000000000000280000008802000024000000A9
:20039000FFFFFFFFB81E0020040000000000000000000000580000003C010000340000008E
:2003B000FFFFFFFFC01E0020040000000000000000000000100000006004000018000000A3
:2003D000FFFFFFFFC81E00200400000000000000000000001C000000AC0200002400000019
:2003F000FFFFFFFFD01E002004000000000000000000000038000000F4010000280000008A
:20041000FFFFFFFFD81E002004000000000000000000000054000000000100003C00000025
:1804300018000000000000000000000040040000080000000000000050
:1804480018000000000000000000000058040000080000000000000020
:18046000180000000000000000000000700400000800000000000000F0
:080478000200000018C800009A
:040480000AF02ABB99
:040484000100000073
:0404880000000E0F53
:04048C0000003E0F1F
:040490003200000036
:040494000200000062
:04049800BC1C002068
:04049C00000200005A
:0404A00089A6000029
:0404A40001CA011078
:0404A8000000000050
:0404AC00000000004C
:0404B0000800000040
:0404B4000000CE1165
:0404B800501C0020B4
:0404BC00010000003B
:0404C000D01D00202B
:0404C400080000002C
:0404C8000000000030
:0404CC00000000002C
:0404D0000000000028
:0404D4000000000024
:0404D8000000000020
:0404DC00010000001B
:0404E0001C1D0020BF
:0404E400060000000E
:0404E800010000000F
:0404EC00BC1B002015
:0404F0000000000008
:0404F4000000000004
:0404F80000020000FE
:0404FC0000000000FC
:02050000704742
:020502002900CE
:020504000100F4
:020506002400CF
:020508002F00C2
:02050A003000BF
:02050C002D00C0
:02050E000100EA
:0105100001E9
:0805140003000000ECC7000029
:08051C000000000000000000D7
:040524000000A10D25
:040528000000BB0D07
:04052C0087C401106F
:04053000380500008A
:040534003805000086
:0405380000000000BF
:04053C0080610000DA
:0405400080610000D6
:0405440000000000B3
:04054800D01D0020A2
:04054C009FA7000065
:040550002000000087
:0405540068C7000074
:0405580054C6000085
:04055C000DC30110BA
:04056000CB77000055
:04056400C77A000052
:0405680099C801101D
:04056C009BC8011017
:040570000000000087
:04057400C8AC00000F
:040578002CC500008E
:04057C0044C5000072
:0405800014C500009E
:020584000280F3
:020586000380F0
:02058800421718
:02058A0001006E
:01058C00016D
:040590000000000067
:040594000000000063
:04059800000000005F
:04059C00000000005B
:0405A00001A60000B0
:0405A400198C0000AE
:0405A800A19D000011
:0405AC0009890000B9
:0405B000597C000072
:0405B40001900000B2
:0405B800DD720000F0
:0405BC0085A1000015
:0405C000157D0000A5
:0405C40011C8011049
:0405C80021C8011035
:0405CC000800000023
:0405D0002400000003
:0405D400180000000B
:0405D80028000000F7
:0405DC0020000000FB
:0405E0003C000000DB
:0405E4000C00000007
:0405E80034000000DB
:2005EC002DE9F04F044609AF10461E46ADF13C0D002800943A8801900D46ADF8302008BFD9
:20060C00002000F001824FF0000B471CCDF838B0ECE1252C40F0D78139787F1C01972D2901
:20062C001CBF0E98ADF81E0005D10121781CADF81E1039780190302918BF0E9805D1019983
:20064C000A460120521C097801920E9A2A2984464FF0FF34069224D123463268089301999F
:20066C00CDF828C0D21C0B4622F00302121D5B1C326052F8042C09780193002A069218D5F5
:20068C000123ADF81E305242069212E0069F019A7B0003EBC703CB18571C303B01971178C4
:2006AC000693302901DB3A29F0DBCDF828C0224608922E292BD1019A11780E9B2A2902F11D
:2006CC000102019210D131680893C91C21F00301091D316051F8044C002C48BF1C1C117825
:2006EC00521C2346019211E01C460BE0019A630003EBC40409191346A1F130045B1C117851
:20070C0001932346302901DB3A29EFDB089308B106980A906C2905D04C291CBF0E9AADF8DB
:20072C001C2007D1019901230A46ADF81C30521C097801920DF1180C02AFCDF82CC00E9AEC
:20074C000D976429099200F0AE80692900F0AB80BDF83030752979D0782975D06F2971D03B
:20076C0070294AD063293AD073291CD0019F012DA7F10107019714D9A7480068B4F1FF3F6F
:20078C0004D0A54284BF641C089400D80895844601A9324606AB6846E047014609988B4495
:2007AC00BBE01046BAE03068019FC01C20F00300001D306050F8040C002B7F1C014608B9A8
:2007CC0093A001460D9109F0B5FF0990B4F1FF3F00F0A580A042C4BF201C09909FE0306866
:2007EC00C01C20F00300001D306010F8041C8DF808100127099738468FE0082130680A917B
:20080C00C01C20F00300001D306050F8047C144606A8824A07F00F01515C3F0904F101049E
:20082C0000F8011DF5D1082C06DAC4F108043021641E00F8011DFAD14021441E00F8011C6F
:20084C00604667E0082102E0102100E00A213268D21C22F00302121D326052F8048CA0423C
:20086C00BCBF201C0A900E9C06AF8A4681464046514608F06BF96948405CB8FBFAF8B8F111
:20088C00000F04F1010407F8010DF0D1A14506DDA9EB04003021401E07F8011DFAD10B98DA
:2008AC000D97C01B38E03168C91C21F00301091D316051F8041CA042BCBF201C0A9006ACFD
:2008CC0081460F46002958BF924604D57F42A0F101094FF02D0A904638460A2108F036F987
:2008EC004E48405C0A23B7FBF3F7002F08F1010804F8010DF0D1C14506DDA9EB080030211F
:20090C00401E04F8011DFAD1BAF1000F18BF04F801AD0B980D94001B0990019F7F1CBDF865
:20092C001E400699091A0691BCB911E0012D0DD900986D1E30B909F0A1FF38B1202009F0B3
:20094C0095FF03E020210170441C00940BF1010B0698401E0690E9D509980446401E099034
:20096C00D4B9BDF81E00002840D00698401E06903CD4012D0DD900986D1E30B909F07EFF9B
:20098C0038B1202009F072FF03E020210170441C00940BF1010BE8E70D994A1C0D920C7829
:2009AC00012D0DD9009B6D1E3BB909F067FF10B1204609F05BFF099802E01C705B1C00930B
:2009CC000BF1010BC9E7012D07F101070CD900986D1E30B909F052FF30B1204609F046FF65
:2009EC0002E00470401C00900BF1010B17F8014C0198002C00F1010001907FF40AAE00983A
:200A0C0008B10E99017058460FB0BDE8F08FC046286E756C6C2900C078C800008FC7000010
:200A2C002DE9F04F09AFADF13C0D00240FF2E818DFF8F4B1DFF8F89108903D880B93387909
:200A4C000A92DFF8F0A10C90FF200E9008780991022809D10846594640680F88008842F623
:200A6C000216864200F0E880099807F069FC5946DFF8B8B1064698A0002E0F880D963CD05E
:200A8C00761E1FD058460168D7B1A4480068014216D0A3480068014204D14A4610680088C0
:200AAC0001420DD0A14840F23A27A3A6056800979D4B01969B4F02941A8838684346A84788
:200ACC000A2006E19A4A5146002F0968079202F1040A3BD0914A1268114237D0904A126836
:200AEC00114204D14A461268128811422ED0914A166840F2352397A218E08D4A51460968DA
:200B0C00079202F1020A0FB3844A126811421DD0834A1268114204D14A4612681288114281
:200B2C0014D0844A166840F227238CA2009301900292089803900B9B049305950C987A4BA4
:200B4C0006901A88774B18684346B047282D2FDA0B9E7619282E1FDD58460168D7B16F4861
:200B6C000068014216D06E480068014204D14A461068008801420DD06C4840F2452779A384
:200B8C0006680097684F0193664B02943A8818684346B0470D242AE009980A990B9AC068A4
:200BAC00281806F031F8AAF800600D980E901EE058460168D7B159480068014216D0584826
:200BCC000068014204D14A461068008801420DD056484FF410776CA306680097524F019328
:200BEC00504B02943A8818684346B04707240E98FF280ED00798806858B107684FB10B987E
:200C0C000D9A0A9B2D18A8B20090089841F23011B84720465DE0C046416363656C5F5365A2
:200C2C0072766963652E630094C800004CC800004405000050C8000051460868002F82462F
:200C4C002BD0364800681AEA000F26D0344800681AEA000F05D14A46106800881AEA000F2E
:200C6C001BD00C98FE280CBF50A757A7099807F067FB30494FF403730E68009355A2019234
:200C8C00029008980390049727490594254B06940A88186851464346B04708980B9B0999C4
:200CAC000A9A009507F0A2FC064621480830076876B96FB1786858B1099807F041FB0246AA
:200CCC000B980A9B00907C68089841F23011A047F0B20FB0BDE8F08F577269746541747498
:200CEC00724342203A20257320636F6E6E48616E646C6528256429206C656E282564292092
:200D0C006F666673657428256429206D6574686F64283078253032782900C0464005000082
:200D2C003C0500006CC800008405000064C800000019002068C800004174747269627574C5
:200D4C006520776173206E6F7420666F756E642E00C046C053747265616D00C05374726948
:200D6C006E6700C0496E76616C69642076616C7565206C656E677468207761732072656367
:200D8C0065697665642E00C0416E20696E76616C6964206F6666736574207761732072658D
:200DAC00717565737465642E00C046C02D20726573746F72696E6720626F6E6465642073EF
:200DCC007461746500C046C02D204F544120777269746500577269746541747472434220CC
:200DEC002843434344293A20706172616D3A20256420636F6E6E48616E646C653A2025643E
:200E0C00202573002DE9F04F09AFADF13C0D00240FF2E818DFF8F4B1DFF8F89108903D88BC
:200E2C000B9338790A92DFF8F0A10C90FF200E9008780991022809D10846594640680F88B0
:200E4C00008842F60216864200F0E880099807F09DFA5946DFF8B8B1064698A0002E0F8837
:200E6C000D963CD0761E1FD058460168D7B1A4480068014216D0A3480068014204D14A462D
:200E8C001068008801420DD0A14840F23927A3A6056800979D4B01969B4F02941A8838681D
:200EAC004346A8470A2006E19A4A5146002F0968079202F1040A3BD0914A1268114237D02E
:200ECC00904A1268114204D14A461268128811422ED0914A16684FF40D7397A218E08D4A71
:200EEC0051460968079202F1020A0FB3844A126811421DD0834A1268114204D14A46126883
:200F0C001288114214D0844A166840F226238CA2009301900292089803900B9B049305953D
:200F2C000C987A4B06901A88774B18684346B047282D2FDA0B9E7619282E1FDD5846016853
:200F4C00D7B16F480068014216D06E480068014204D14A461068008801420DD06C484FF4D8
:200F6C00117779A306680097684F0193664B02943A8818684346B0470D242AE009980A99E9
:200F8C000B9AC068281805F03FFEAAF800600D980E901EE058460168D7B1594800680142E8
:200FAC0016D058480068014204D14A461068008801420DD0564840F23F276CA30668009725
:200FCC00524F0193504B02943A8818684346B04707240E98FF280ED00798806858B1076808
:200FEC004FB10B980D9A0A9B2D18A8B2009008984FF48A51B84720465DE0C046454D475F29
:20100C00536572766963652E6300C04694C800004CC800004405000050C800005146086884
:20102C00002F82462BD0364800681AEA000F26D0344800681AEA000F05D14A461068008866
:20104C001AEA000F1BD00C98FE280CBF50A757A7099807F09BF9304940F20B230E680093EE
:20106C0055A20192029008980390049727490594254B06940A88186851464346B04708989E
:20108C000B9B09990A9A009507F0B0FA064621480830076876B96FB1786858B1099807F0F6
:2010AC0075F902460B980A9B00907C6808984FF48A51A047F0B20FB0BDE8F08F57726974E2
:2010CC0065417474724342203A20257320636F6E6E48616E646C6528256429206C656E28F2
:2010EC00256429206F666673657428256429206D6574686F64283078253032782900C04612
:20110C00400500003C0500006CC800008405000064C80000E019002068C800004174747270
:20112C00696275746520776173206E6F7420666F756E642E00C046C053747265616D00C052
:20114C00537472696E6700C0496E76616C69642076616C7565206C656E677468207761733B
:20116C002072656365697665642E00C0416E20696E76616C6964206F6666736574207761B9
:20118C0073207265717565737465642E00C046C02D20726573746F72696E6720626F6E64FD
:2011AC00656420737461746500C046C02D204F5441207772697465005772697465417474A3
:2011CC00724342202843434344293A20706172616D3A20256420636F6E6E48616E646C6526
:2011EC003A202564202573002DE9F04FADF16C0D08F080FD0FF2D428AD48DFF8C8B20168BB
:20120C00AC48DFF8C4A204881991DCB1AA480068014217D0A9480068014204D1A848006881
:20122C00008801420ED0504605684FF4B177ABA60097002301965F46D54E02933A88306832
:20124C004346A847D34D002105F13406304609F031FD05F1400005F14C01EE6005F04AFEF8
:20126C00DFF83493686108BB48460168DCB192480068014217D091480068014204D1904817
:20128C000068008801420ED05046066840F26F17A2A30097002201935F46BD4B0292186822
:2012AC003A884346B04709F001FD6869BB4909F09DFB00B348460168DCB17F4800680142DA
:2012CC0017D07E480068014204D17D480068008801420ED05046066840F2751797A300976C
:2012EC00002201935F46AA4B029218683A884346B04709F0DBFC06A800212422082309F033
:20130C00D1FCA84F4FF47A7932260D20A4493A680C9006AB05F19C00B9FBF2F292B2724343
:20132C0009F0BCFC39680E2006ABB9FBF1F189B24E439B490C9005F1C000324609F0AEFCBD
:20134C000027012640F205308DF80C6003AAADF80E70314602F096F840F2063002210DF18B
:20136C000E0202F08FF84FF442702A46314602F089F8583540F207300D212A4602F082F889
:20138C00199DECB14C480068054219D04B480068054204D14A4800680088054210D007F00B
:2013AC006FF9514640F2A7136FA20C68009359460192774B02900A88186829464346A047A7
:2013CC0006204FF4A07107F0EFFE07204FF4A07107F0EAFE08204FF4A07107F0E5FE0920CA
:2013EC004FF4A07107F0E0FE30464FF4C87107F0DBFE049734468DF816704FF481608DF82D
:20140C00144004218DF8154004AA8DF8174007F0B1FE4FF48060314605AA07F0ABFE40F222
:20142C00024031460DF1150207F0A4FE40F2034031460DF1160207F09DFE40F206403146B6
:20144C000DF1170207F096FE09F031FBFFF712F809F02AF909F092FA04F086FE04F0EAFEC4
:20146C0005F010F8FEF7E4FD0FA83946282206F0BFF8384628210FAA00F08EFD30462821A6
:20148C000FAA00F089FD384628210FAA00F0EEFB304628210FAA00F0E9FB08F07BFF08F002
:2014AC0065FA09F0FBFA09F0FFFA1BB0BDE8F08F50C8000094C80000400500003C050000F8
:2014CC00440500008405000064C80000466C65785A6F6E65424C452E6300C046496E6974D9
:2014EC0069616C697A696E67207468652075736572207461736B2C206861726477617265DC
:20150C002C20424C4520737461636B20616E642073657276696365732E00C0464572726FC7
:20152C007220696E697469616C697A696E6720627574746F6E2070696E7300C04572726F14
:20154C0072207265676973746572696E6720627574746F6E2063616C6C6261636B20667546
:20156C006E6374696F6E00C04E616D6520696E20616476657274446174612061727261793D
:20158C003A201B5B33336D25731B5B306D00C0466CC80000800E00204CC80000D15F0000C5
:2015AC00C925000044C800002DE9F84F054640F29421012441F22D00C4F22231C4F2090049
:2015CC0040F81D4C086810B908680028FAD046F2000043F6B477C021C4F20C00C5F20007C6
:2015EC0001603E6857F8040C46F25622C4F20802800806D257F8080C000C40F0F00010709A
:20160C0001E07220107041F2B820C5F200000068C0F3046009F06DF939680B171B185B1CBE
:20162C0013F10A0FB8BF6FF009034FF0000CF10EB00E03F01F0381F00101C4F2203C80F08D
:20164C00010043F4F85301F00101138300F00100CCF800103146CCF80800284604F084F98B
:20166C00814609F0B7F90021002808BF211C48F20008C4F20C08D8F8000018B9D8F8000024
:20168C000028F8D04AF2080AC4F20C0ACAF81090C8F8004009B109F0A3F9284608F0E8FC39
:2016AC0040F2FF32002380B22C2100904AF20000C4F20C0006F056FB284608F0BFFE81465A
:2016CC0009F088F90021002808BF211CD8F8000018B9D8F800000028F8D0CAF81490C8F8B0
:2016EC00004009B109F07CF9284608F0C6FA814609F070F90021002808BF211CD8F800000A
:20170C0018B9D8F800000028F8D0CAF80C90C8F8004009B109F064F9284608F055FC814640
:20172C0009F058F90021002808BF211CD8F8000018B9D8F800000028F8D0CAF80890C8F88B
:20174C00004009B109F04CF9284605F08BFB814609F040F90021002808BF211CD8F8000046
:20176C0018B9D8F800000028F8D0CAF80490C8F8004009B109F034F9284608F02FFE4AF2C7
:20178C004009C4F20C09400040F0200089F80901284608F02FFE40F0100089F80901284642
:2017AC0008F076FC834609F015F90021002808BF211CD8F8000018B9D8F800000028F8D035
:2017CC00CAF820B0C8F8004009B109F009F9284608F01CFE400040F0600089F80C0128466A
:2017EC0008F020FEC00040F0800089F80101284608F030FE800040F47C40A9F89C01284624
:20180C0008F02AF8834609F0E5F80021002808BF211CD8F8000018B9D8F800000028F8D055
:20182C00CAF800B0C8F8004009B109F0D9F8442089F8C5004FF0880E89F8C7E0284608F099
:20184C00F1FE40F03001C6F3815089F8C81078B3401E06D0401E26D00420022106F02FFC2E
:20186C0030E0204608F0E6FA05460420294606F026FC042008F0DEFA8542FAD157F80C5CDB
:20188C0025F07F4007F060FD40F2B410C1F200000068036807214FF06022280E98474FF457
:2018AC008060C9F800000420032106F008FC09E00420214606F003FC43F2BD70C0F2860036
:2018CC0007F042FD41F2B820C5F20000D0F8B4004BF2700242F22C0E46F2000B47F61801D2
:2018EC004FF0000C41F22D0AC4F20C02C4F2090E40F2944800F03F0089F8CB0FC4F20C0B31
:20190C001180DEF80000CBF800C0C4F2090A4AF81DCCC4F26028C8F80040BDE8F88F7047BC
:20192C002DE9F84FC64DC74ED5F8EF1FCC4C7368D5F8F30F8843C5F8F30F002BC5F8FF1FE9
:20194C0000F011817788012B00F0D680DFF8FCB2BF4FDFF800A3DFF80093DFF80083022B8A
:20196C0072D0032B40F06A810024B06855F8312C74600028A2F5C062B8BF404211460029BC
:20198C00B8BF494288422EDA111C54BF02206FF00100B26900EB4100032190FBF1F189182C
:2019AC00B161F368706998420BD0B1F11002B8BF524230691038B8BF40428242B8BF88B212
:2019CC0009DB98B20090A04830214FF47F42082306F0C8F9308A00909B4804214FF4F8028F
:2019EC00122306F0BFF95846046001688908FCD20460012644600E203E6004F04DFB504661
:201A0C000468EFF3118584F3118849460820B0FA80F00A1AD07F431E0128D37704D1424651
:201A2C00106820F00800106085F31188EFF3118384F311880420B0FA80F0091AC87F421EFB
:201A4C000128CA7754D14EE055F8310CB0F5C06F17D00327776003F021FB45F8397C00274F
:201A6C00276020688008FCD27748394660220523009106F077F90126266020688008FCD38A
:201A8C0064E0002171605846016002689208FCD20160012641600E203E6004F0FDFA5046BD
:201AAC000468EFF3118584F3118849460820B0FA80F00A1AD07F431E0128D37704D14246B1
:201ACC00106820F00800106085F31188EFF3118384F311880420B0FA80F0091AC87F421E5B
:201AEC000128CA7704D14246106820F00400106083F31188BDE8F88F55F8312C02214BF2D2
:201B0C00F52071605043000A37B95649096821F07F414018400801E0002171806060000C06
:201B2C00A0600126E660032745F8397C0027276020688008FCD2444839466022052300913E
:201B4C0006F010F9266020688008FCD345F8216C45F8397C0820C5F8FF0FC5F8F30F45F86A
:201B6C00396CBDE8F88F40480068006801462020884741F61D574FF002080F2045F82D0C41
:201B8C0000214FF4C072072345F8297C2E48CDF8008006F0E7F8012744F8047C54F8040CC7
:201BAC008008FBD3308845F81D7C012821D0032045F8390C4FF00009C4F8009020688008D2
:201BCC00FCD22148494660220523009106F0CAF8276020688008FCD345F8217C45F8399CEE
:201BEC000820C5F8FF0FC5F8F30F45F8397C474623E04FF00009C4F80C90032045F8390C60
:201C0C00C4F8009020688008FCD20F48CDF8008049466022052306F0A5F82760206880088F
:201C2C00FCD3202045F8210C45F8399C0824C5F8FF4FC5F8F34F45F8397C7760BDE8F88FE2
:201C4C0039400C407C1D002000A00C4034600C4004800C4040C80000F01E00204C1B0020A1
:201C6C0038600C4010200940A00100102DE9F04F0546C048C04CDFF8E0A1DFF8E091DFF81F
:201C8C00E0E10F46ADF1340D0FF2102C0FF2D4182E1C01880892E068079141D0761E21D036
:201CAC00B648079F0168002F00F0D280B4480068014200F0CD80B3480068014205D15046A4
:201CCC0000680088014200F0C380B04840F2451768A6046800974B460196AB4F02951A88A0
:201CEC0038686FE08346261D04F13803704601220A960029099305680B923DD0A048006808
:201D0C00054239D09F480068054204D1504600680088054230D040F2411367A200211AE085
:201D2C00A61C04F11003704600220A96099305680B9209B39248006805421DD0914800683C
:201D4C00054204D1504600680088054214D04FF49B735BA20B998E4806680093CDF804C058
:201D6C0002920397049105914B46069186491A88086843462946B047282F26DD7F48079E40
:201D8C000168002E64D07E480068014260D07D480068014204D1504600680088014257D096
:201DAC007B484FF4AF760468009647A50195029700230393282204924E460593724D0693B2
:201DCC00328828684346A04742E0099808993A4604F01AFF0B9E0A98002E078038D00798A5
:201DEC00294600282BD066480068014227D065480068014204D150460068008801421ED011
:201E0C004846634B604E02889BF802701D683068002F08BF3AA303D0012F0CBF3FA345A3B5
:201E2C0040F25516009648A70197BBF800600296039300270497059743460697A84755488B
:201E4C0000900999237804F16002584605F0E2F80DB0BDE8F08FC04644050000840500002C
:201E6C0050C80000416363656C5F536572766963652E6300536574506172616D65746572D8
:201E8C003A20506172616D6574657220232564206E6F742076616C69642E00C05365745064
:201EAC006172616D65746572203A202573206C656E3A20256400C04653747265616D00C03F
:201ECC00537472696E6700C04C656E677468206F75747369646520626F756E64733A204CEF
:201EEC00656E3A202564204D696E4C656E3A202564204D61784C656E3A2025642E00C0465E
:201F0C001B5B33336D4E6F74692F696E642064697361626C65641B5B306D00C04E6F7469A3
:201F2C006669636174696F6E20656E61626C656400C046C0496E6469636174696F6E206510
:201F4C006E61626C656400C0547279696E6720746F2073656E64206E6F74692F696E643A87
:201F6C0020636F6E6E48616E646C652025782C20257300C094C80000001900204CC8000031
:201F8C00400500003C0500006CC8000064C8000068C80000193000002DE9F04F0546C0482E
:201FAC00C04CDFF8E0A1DFF8E091DFF8E0E10F46ADF1340D0FF2102C0FF2D4182E1C0188A0
:201FCC000892E068079141D0761E21D0B648079F0168002F00F0D280B4480068014200F0D0
:201FEC00CD80B3480068014205D1504600680088014200F0C380B0484FF4A27768A6046842
:20200C0000974B460196AB4F02951A8838686FE08346261D04F13803704601220A960029F5
:20202C00099305680B923DD0A0480068054239D09F480068054204D1504600680088054209
:20204C0030D04FF4A07367A200211AE0A61C04F11003704600220A96099305680B9209B356
:20206C009248006805421DD091480068054204D1504600680088054214D040F235135BA259
:20208C000B998E4806680093CDF804C002920397049105914B46069186491A880868434645
:2020AC002946B047282F26DD7F48079E0168002E64D07E480068014260D07D48006801420C
:2020CC0004D1504600680088014257D07B4840F25D160468009647A50195029700230393F1
:2020EC00282204924E460593724D0693328828684346A04742E0099808993A4604F084FD5D
:20210C000B9E0A98002E078038D00798294600282BD066480068014227D0654800680142D2
:20212C0004D150460068008801421ED04846634B604E02889BF802701D683068002F08BF7B
:20214C003AA303D0012F0CBF3FA345A34FF4AA76009648A70197BBF8006002960393002716
:20216C000497059743460697A847554800900999237804F16002584604F04CFF0DB0BDE807
:20218C00F08FC046440500008405000050C80000454D475F536572766963652E6300C04624
:2021AC00536574506172616D657465723A20506172616D6574657220232564206E6F7420EE
:2021CC0076616C69642E00C0536574506172616D65746572203A202573206C656E3A202538
:2021EC006400C04653747265616D00C0537472696E6700C04C656E677468206F7574736950
:20220C00646520626F756E64733A204C656E3A202564204D696E4C656E3A202564204D61CE
:20222C00784C656E3A2025642E00C0461B5B33336D4E6F74692F696E642064697361626C08
:20224C0065641B5B306D00C04E6F74696669636174696F6E20656E61626C656400C046C03E
:20226C00496E6469636174696F6E20656E61626C656400C0547279696E6720746F2073652D
:20228C006E64206E6F74692F696E643A20636F6E6E48616E646C652025782C20257300C067
:2022AC0094C80000E01900204CC80000400500003C0500006CC8000064C8000068C8000073
:2022CC00553200002DE9F04F8146B9F1010FADF11C0D40F05781AD480068EFF3118280F381
:2022EC001188DFF8CCB29BF80400012818BF012003D1022100208BF8041082F31188012847
:20230C0000F03E8108F0C6FC0390AA48046804EB0B0008F0BBFC4FF00008464637460BEB68
:20232C000401CDF810800191B0B90C46084608F0A9FC0546A868400808D3E8682969024657
:20234C0001209047C0B2012800F01281284608F095FC0546AC42EDD1002F40F00D8108F088
:20236C0089FC029005978A480760012007F062FD012804D1404606F009FC4FF00108854F53
:20238C0038688068014630468847874819300090D0F8FF0FB9F1010F40F08C80864C0A3499
:2023AC00E57905B10126A5790DB146F0020665790DB146F00406DFF8E09165782DB1B86ABB
:2023CC00006B49460246C88D904725782DB1B86A006B49460246488D9047704901200860B6
:2023EC00B86A8069014646F0200088476C4DDBF80010286840F001002860480813D269488F
:20240C0008F070FA8246BAF1040FF8D0D5F8180220F00300C5F81802B86C40680246614872
:20242C000321904701E001200490059801F064FCB86A0099806BD1F8FF1F8047049858B910
:20244C00B86C40680246574851469047D5F8180240F00300C5F8180238688068014601206E
:20246C008847514801688909FCD3B8F1010F02D1012006F08BFBB86A40690146304688479E
:20248C00B86A406B0146304688470128F8D166782EB1B86AC06A49460246C88D904726783B
:2024AC002EB1B86AC06A49460246488D90473B49012008603A480168032221F001010160D1
:2024CC0001988BF8042008F0E1FB0028059818BF01200125C8B9019C204608F0D3FB064663
:2024EC00B068C00807D3F0683169024604209047C0B2012806D0304608F0C0FB0646B44205
:20250C00EED102E02948006880472148009F0560D7F8FF0F08F064FA019808F0B7FB059FE7
:20252C00D0B9019C204608F0ADFB0646B068000907D3F0683169024608209047C0B2012848
:20254C0006D0304608F09AFB0646B442EED103E0164800688047022702988BF8045008F093
:20256C0085FB05F011FB039808F07CFB38460AE00E4800688047022701208BF80400F2E72D
:20258C00062000E0022007B0BDE8F08F40C800000C40094090010010C8C4000028200860B2
:2025AC000C200840004003401410094034C800004C1B002030C80000101E00202DE9F04F8D
:2025CC00A64CA071ADF11C0D0690C0B208F08AF8C0B20590DFF8A4B2A148DFF898A2066807
:2025EC00A048DFF8949205880FF2A818E5B19E480068064218D09D480068064204D19C483A
:20260C000068008806420FD05846076840F2675364A20093002101924B46029151461A88F4
:20262C00086843463146B847059F6069002F0CBF934A944A06990A434FF4E02106F06AFE6F
:20264C00069F0D3F4AD07F1E40F0A080059FE078002F3ED1002840F099800120E070002139
:20266C00E07104F58574039101F1200004F8010B0398491C401C25280390F5D907F0A4F8C0
:20268C00071C13D1002D00F081807748006806427CD076480068064204D17548006800885E
:2026AC00064273D040F2AC5746A544E0002D6DD06D480068064269D06C480068064204D1FE
:2026CC006B4800680088064260D04FF4B66545A350E000285AD00020E07056E0059FA078A9
:2026EC00002F4FD1002851D10120A070E071E43400200490224602F8010B0499401C491C1B
:20270C0025290491F7D92046262106F0B9FE071C1FD1002D3AD054480068064236D0534869
:20272C000068064204D152480068008806422DD040F28C5737A558460468009700230195EE
:20274C0057460293386849460A8843463146A0471CE0DDB144480068064217D043480068F3
:20276C00064204D142480068008806420ED04FF4B2652FA3584604680095019355460297FD
:20278C002868E0E710B10020A070E07107B0BDE8F08FC046466C65785A6F6E65424C452E87
:2027AC006300C04620427574746F6E204465626F756E6365205357492066756E6374696F98
:2027CC006E2000C0416363656C207061636B65742050757368656420746F20537461636B8D
:2027EC0000C046C04552524F523A20416363656C207061636B6574207075736820746F20B0
:20280C00737461636B206572726F72202530326400C046C0454D47207061636B657420509A
:20282C00757368656420746F20537461636B00C04552524F523A20454D47207061636B65B9
:20284C0074207075736820746F20737461636B206572726F72202530326400C0800E00201C
:20286C0050C8000094C80000400500003C050000440500006CC800008405000064C8000020
:20288C0000000680000005802DE9F04FA349A44EA54DA64CDFF898B2DFF898A2DFF89892D7
:2028AC000F88401E0FF2B418ADF1240D00F09080401E75D0801E61D0401E4DD0401E2ED032
:2028CC00401E17D0401E40F0C6803168002F00F0C28094480068014200F0BD802868014252
:2028EC0004D120680088014200F0B58040F2F6205EA766E03168002F00F0AD8089480068CE
:20290C00014200F0A8802868014204D120680088014200F0A08040F2EA2056A751E040F2A9
:20292C00153004A902F00CFA04A805F091FC3168002F00F090807B4A1268114200F08B801E
:20294C002A68114204D122681288114200F0838040F2E5274EA673E03168002F7BD07148F6
:20296C000068014277D02868014203D120680088014270D040F2F2204FA722E03168002F1B
:20298C0069D068480068014265D02868014203D12068008801425ED040F2EE204CA710E017
:2029AC003168002F57D05F480068014253D02868014203D12068008801424CD040F2DB2064
:2029CC0048A74A46146800900197002602963CE04FF4417006A902F0B3F900218DF81410E3
:2029EC009DF819308DF813109DF81A208DF811309DF818008DF812209DF81B108DF81000F7
:202A0C009DF81D308DF815109DF81C208DF8173004A88DF8162007F0C9FE06A805F018FCA5
:202A2C003168C7B13F4A1268114214D02A68114203D12268128811420DD040F2D6272CA631
:202A4C004A4614680097019602905B46554618682A884346A04709B0BDE8F08F466C657854
:202A6C005A6F6E65424C452E6300C0464572726F7200C046436F6E6E656374656420616EB2
:202A8C0064206164766572746973696E6700C046436F6E6E65637465642E20506565722073
:202AAC00616464726573733A201B5B33326D25731B5B306D00C046C0436F6E6E65637469DE
:202ACC006F6E2074696D6564206F757400C046C0446973636F6E6E6563746564202F204911
:202AEC00646C65004164766572746973696E670047415020697320737461727465642E20DC
:202B0C004F757220616464726573733A201B5B33326D25731B5B306D00C046C094C80000FE
:202B2C0050C80000400500003C050000440500006CC800008405000064C80000994A2DE9C0
:202B4C00F04F01461788DFF874C2974EDFF85C92DFF85C82DFF85CE2DFF85CB2984D0A7A75
:202B6C005DA301F1090401F10900ADF11C0D072A00F2AF80DFE802F09A8DABA76C4223042F
:202B8C003168CFB148460068014215D040460068014204D170460068008801420CD02C6893
:202BAC0040F29D2050A700260090654601975F4602962A883868A04707F040FE89E031687D
:202BCC00CFB148460068014215D040460068014204D170460068008801420CD02C6840F2BA
:202BEC0096204BA700260090654601975F4602962A883868A04707F029FE6AE031681FB3DF
:202C0C004846006801421FD040460068014204D1704600680088014216D0A778002F0CBF92
:202C2C0044A247A2674840F286270568009746A601960292002703970497059766460697CF
:202C4C005F4632883868A847208806F0FDFC40E030460168CFB148460068014215D04046C0
:202C6C000068014204D170460068008801420CD02D6840F28E2041A70090002601976746AB
:202C8C0002965E463A883068A847204601F0C2FF1FE0078841F230117F1A04D0103F18D1E4
:202CAC0002F06EF915E002F0DDF812E0078841F230117F1A04D0103F0BD101F02FFC08E062
:202CCC0001F068FB05E0487AFFF7DEFD01E006F0ABFF07B0BDE8F08F466C65785A6F6E6595
:202CEC00424C452E6300C0464150505F4D53475F53454E445F414343454C5F44415441205E
:202D0C006576656E742063616C6C65642000C0464150505F4D53475F53454E445F454D47F2
:202D2C005F44415441206576656E742063616C6C65642000446973706C6179696E6700C053
:202D4C0053656E64696E6700426F6E644D6772205265717565737465642070617373636F7B
:202D6C0064652E205765206172652025732070617373636F64652025303664004150505FA3
:202D8C004D53475F425554544F4E5F4445424F554E434544206576656E742063616C6C65BA
:202DAC00642000C094C8000050C80000400500003C050000440500006CC8000084050000C3
:202DCC0064C8000068C800002DE9FF4705468448DFF828C2DFF81092DFF81082DFF810E2AC
:202DEC00DFF810A2844E0788687846A3162856D02A797E2A38D07B487F2A1CD00168002F6D
:202E0C006FD04846006801426BD040460068014204D1704600680088014262D0604640F2FA
:202E2C008347046800973BA701970292574632883868A04755E00168002F52D048460068E8
:202E4C0001424ED040460068014204D1704600680088014245D0604640F27E470468009761
:202E6C0036A20192288918E065480168002F38D048460068014234D040460068014204D1A2
:202E8C0070460068008801422BD0604640F279470468009730A20192287A0290C6E75A48BF
:202EAC000168CFB148460068014215D040460068014204D170460068008801420CD060468E
:202ECC004FF48C670468009732A2019228795746029032883868A0476888082106F05CFDCD
:202EEC0030B1297905F1080007F092F9012005E0012001F0D5FB4348056000200090BDE896
:202F0C00FF87C046466C65785A6F6E65424C452E6300C04652656365766965642047415461
:202F2C0054204D6573736167652E204F70636F64653A2030782530327800C0464D54552087
:202F4C0053697A65206368616E67653A20256420627974657300C046466C6F7720636F6E1C
:202F6C0074726F6C2076696F6C617465642E204F70636F6465206F66206F6666656E646974
:202F8C006E6720415454206D73673A2030782530327800C04F7574676F696E6720524620FB
:202FAC004649464F2066756C6C2E2052652D7363686564756C65207472616E736D6973738B
:202FCC00696F6E206F66206D73672077697468206F70636F64652030782530327800C04600
:202FEC0094C8000050C80000400500003C050000440500006CC800008405000064C8000099
:20300C004CC80000900E002054C800002DE9F04F834609AF0846ADF1340D099397F808A0E0
:20302C000892B98807903F880A9105F089F906467A48DFF8F4910588814ADFF808E27848F6
:20304C000FF23C180FF2641C002E4FF00004818840880B9538D0761E1FD072480168D5B178
:20306C0048460068014216D070480068014204D16F480068008801420DD0704840F2DB174A
:20308C0043A6056800976C4B01966A4F02941A8838684346A8470A206FE00D4610460B9E15
:2030AC000168002E37D048460068014233D05F480068014204D15E480068008801422AD030
:2030CC004FF4EB7348A214E0054610460B9E01680EB34846006801421DD054480068014284
:2030EC0004D1534800680088014214D040F2CB133FA2704606680093CDF804C00292CDF8B3
:20310C000CB00497CDF814A04B4B06941A88494B18684346B047BD420EDB0A98E91B81421C
:20312C00D4BF8AB2021C099802800798C0683918089803F069FD1FE03A480B9F0168D7B146
:20314C0048460068014216D038480068014204D137480068008801420DD0384840F2E1170B
:20316C0025A605680097344B0196324F02941A8838684346A847072420460DB0BDE8F08F1B
:20318C00416363656C5F536572766963652E630041747472696275746520776173206E6F6E
:2031AC007420666F756E642E00C046C052656164417474724342203A20257320636F6E6EE3
:2031CC0048616E646C653A202564206F66667365743A202564206D6574686F643A20307887
:2031EC002530327800C046C053747265616D00C0537472696E6700C0416E20696E76616CB2
:20320C006964206F666673657420776173207265717565737465642E00C046C094C8000081
:20322C00001900204CC80000400500003C050000440500006CC800008405000064C800007D
:20324C0050C8000068C800002DE9F04F834609AF0846ADF1340D099397F808A00892B98869
:20326C0007903F880A9105F091F806467A48DFF8F4910588814ADFF808E278480FF23C1833
:20328C000FF2641C002E4FF00004818840880B9538D0761E1FD072480168D5B14846006895
:2032AC00014216D070480068014204D16F480068008801420DD070484FF4ED7743A6056825
:2032CC0000976C4B01966A4F02941A8838684346A8470A206FE00D4610460B9E0168002E92
:2032EC0037D048460068014233D05F480068014204D15E480068008801422AD040F2D5136B
:20330C0048A214E0054610460B9E01680EB34846006801421DD054480068014204D1534872
:20332C0000680088014214D04FF4E5733FA2704606680093CDF804C00292CDF80CB00497FE
:20334C00CDF814A04B4B06941A88494B18684346B047BD420EDB0A98E91B8142D4BF8AB262
:20336C00021C099802800798C0683918089803F04BFC1FE03A480B9F0168D7B148460068FC
:20338C00014216D038480068014204D137480068008801420DD038484FF4F07725A6056807
:2033AC000097344B0196324F02941A8838684346A847072420460DB0BDE8F08F454D475FD9
:2033CC00536572766963652E6300C04641747472696275746520776173206E6F7420666FF4
:2033EC00756E642E00C046C052656164417474724342203A20257320636F6E6E48616E648F
:20340C006C653A202564206F66667365743A202564206D6574686F643A20307825303278C0
:20342C0000C046C053747265616D00C0537472696E6700C0416E20696E76616C6964206F12
:20344C00666673657420776173207265717565737465642E00C046C094C80000E019002082
:20346C004CC80000400500003C050000440500006CC800008405000064C8000050C800005C
:20348C0068C80000F8B5A0F2013517460E46022D40F20A81874A8549854B2D1F0F2D04D90A
:2034AC00143D4AD0AD1E1CD011E0DFE815F0B900B400EA00DA00AD00A600FD009E0097006B
:2034CC00100010009000860079006E006000272880F2EA80022E40F0E780398805F064FE59
:2034EC00F8BD012E40F0E0800A469078012800F0DB80D1783878D07081B9002800F0D480A1
:20350C001078012800F09F80042800F09C80062800F09980052800F09680F8BD38780028B0
:20352C0040F0C2801078032800F09880072800F09580052800F09280F8BD012E40F0B480A7
:20354C003878012840F0B0801D4605F1F00007F065F9002840F0A880002004F043FA00288F
:20356C0040F0A2802846CC3007F0DCFAF8BD022E40F09A8038880A28C0F29680B0F5486F71
:20358C0000F3928011461E3115E0022E40F08C803888B0F5FA7F80F2878011461C310AE02E
:2035AC00022E40F08180388806287DDBB0F5486F7ADC11461A310880F8BD022E74D1388892
:2035CC00062871DBB0F5486F6EDC1731F3E7012E6AD13878022867DA0A310CE0012E63D18E
:2035EC003878042860DA093105E0012E5CD13878082859DA08310870F8BD012E54D13878B1
:20360C00042851DAC91DF6E7012E4DD1387804284ADC891DEFE7022E46D138881331CAE7BD
:20362C00012E41D10A46D07801283DD091783878907061B9002837D01078012803D00428BD
:20364C0018BF052830D1012006F094FFF8BD387850BB1078022818BF052825D107F0AEF8F6
:20366C00F8BD1D4605F1890400211F22204603F0BFFF39463246204603F0C6FA0020AE71DB
:20368C000EE01D4605F16A0400211F22204603F0AFFF39463246204603F0B6FA01206E7100
:2036AC003146224604F05CFDF8BDC046C1130020C0130020C01300202DE9F0410446DFF8D5
:2036CC001C82A2780026101C00F0D780801E00F0B180401E012840F28780801E52D0401EF0
:2036EC0026D0401E03D0083800F0EA80EBE0454605F1F00007F016FA6078002840F0E38027
:20370C00E0882884208968846089A88405F1CC0007F084F8002840F0D6806B6B002B00F00B
:20372C00D2801B68288C698CAA8C9847BDE8F081A08806F0A5FB45463146062205F14400B2
:20374C0003F056FF2E846E84AE84A079687305F1CC0007F0E7F905F1F00007F0E3F90126D2
:20376C004FF6FF702F79E8824FB9A079082814BF042005206870304606F0FCFEA3E0032026
:20378C006870A0E045466778EA7A2FBB211D0B6805F1440003608988818006276F706089B8
:2037AC00E882E0892884208A6884608AA884E078012A28730AD11F2005F068FA4FF47A7115
:2037CC00024605F1CC00514305F0A4FBE0786289211D05F04BFB78E06078312818BF082067
:2037EC001CD1EE70042019E06778002F63D14546A98A6878032A13D0EA782F7921B9012A56
:20380C0014BF2E71EE7006E0174304D005F1A80005F080FB68780728E4D10620687054E0B4
:20382C00062805D0E87800280CBF03200220F5E70720F3E76078651C00283CD14046E77891
:20384C0081798FB94178022914D0072912D0062902D1017901290DD1A83006F0DFFF48B90F
:20386C00012006F087FE05E000F18902304604F077FC28702878F0B925E06078D8B9454688
:20388C000220102105F14A0205F0ACFD0320102105F15A0205F0A6FDE41C05F13800A7884E
:2038AC002168878005F16A02016001206979687004F056FC48B1454608206D1C287004E0D7
:2038CC00A08807F04FF8012E06D14546286B18B1016809B168788847BDE8F081C0130020AE
:2038EC002DE9F04FADF1540D04F0DAFC844C04F1280007F0B3F904F13C01049175490A6817
:20390C0075490F8875490968069702EA01077449096805920A407349096809917249098864
:20392C0000200C917149039009680D91704907974FF0000909680892CB460E915AA10B9171
:20394C005BA10A915946109104F5CA761191804612918246139104984FF0FF3107F07AF95F
:20396C0007F074F9644DA0603220C83D0F90286840F26C7181425DD96778B0F5617F4AD218
:20398C0004F1200003C84FA20CCA03F0E5FC3FD2109A002001214FEA880760701AEB010AFB
:2039AC00914607EB08104BEB020BA0614FF00008FA282DD93060069F03980599401C03900A
:2039CC0097B1079F87B1089F1FB9099A128811420AD0E2220A9F0092DDF838C00B9B019782
:2039EC000C9A02900D98E04703A8042105F048FD072006F081FE464600B901263D480068B8
:203A0C000721324605F06AFA03983B4E06EB80060020286027E037B9119901201AEB000A8D
:203A2C004BEB010B1FE01299012018EB000849EB010918E004F1200003C824A20CCA03F0BD
:203A4C008BFC10D8012001234FEA8A07DDF84CB0607018EB030807EB0A1049EB0B09E06198
:203A6C004FF0000A306555F8040B06F061FB0F9F04F1200282E80300781E0F907FF477AFAE
:203A8C00012727709DF80C0084F8D40207F0DEF8A1681A4DE76AE060421A2261401A6843B6
:203AAC00B0FBF7F0606156E7656D672E6300C04667657420626967206D79206D616E733AF9
:203ACC002025750000000000000000000000000000208C4050C8000094C80000400500007B
:203AEC003C05000044050000840500006CC8000064C80000981D00209C03002040420F0022
:203B0C00080200202DE9F0411C4615468C4208BF854282BF00230022E5E0002C08BF002DA4
:203B2C000AD100290EBF00286FF000006FF0000100F0E1F8BDE8F0815FF000085FF0000E2E
:203B4C00002C08BF8D429CBF2C1C0025070C47EA01470E0CB44208BFBD429EBF5FEA04447F
:203B6C0044EA15445FEA0545070A47EA01670E0AB44208BFBD429EBF5FEA042444EA15642C
:203B8C005FEA0525470847EAC1774E08B44208BFBD4200F29380870847EA81778E08B44293
:203BAC0008BFBD427CD8C70847EA4177CE08B44208BFBD4266D8070947EA01770E09B44291
:203BCC0008BFBD4250D8470947EAC1674E09B44208BFBD423AD8870947EA81678E09B442E7
:203BEC0008BFBD4224D8C70947EA4167CE09B44208BFBD420DD8E60146EA5566EF01B14221
:203C0C0008BFB84201D3C01BB14158EB08085EEB0E0EA60146EA95664FEA8517B14208BF1D
:203C2C00B84201D3C01BB14158EB08084EEB0E0E660146EAD5666F01B14208BFB84201D36B
:203C4C00C01BB14158EB08084EEB0E0E260146EA15762F01B14208BFB84201D3C01BB1417C
:203C6C0058EB08085EEB0E0EE60046EA5576EF00B14208BFB84201D3C01BB14158EB080808
:203C8C004EEB0E0EA60046EA9576AF00B14208BFB84201D3C01BB14158EB08084EEB0E0E36
:203CAC00660046EAD5766F00B14208BFB84201D3C01BB14158EB08085EEB0E0EA14208BFF1
:203CCC00A84201D3401BA14158EB08085EEB0E0EA34208BFAA423EBF2D0A45EA0465240A93
:203CEC0089D3734642461E4617460B46024631463846BDE8F0817047F8B507460020C4F22F
:203D0C0009000068800880F0CA8005F018FE42F22421C4F208010A68002112F0030F18BF23
:203D2C000121D20828BF41F00201002F18BF41F0040143F2EC76C2F2000696F90720821A81
:203D4C00052A04DAB2798A4208BFB28871D041F29C340F28A0F10F02C5F2000426DB02EB8C
:203D6C000012F03A1712072F88BF0727BC46BCF1060F88BF4FF0060C54F82CE004232546E1
:203D8C0003EB8C03EB58CD08A3EB0E0303F0FF0C24BFC3F30725AC448D0824BFC3F30745B6
:203DAC00AC444D0805D30CEB136C02E04FF0000C674654F82730CC0803F0FF0524BFC3F383
:203DCC00072425448C0824BFC3F3074425444C0828BF05EB1365A2EB07221FFA8CF35343DB
:203DEC0080330022082B88BF012243F6B473C5F200031C681B684FF4D07C34275219241794
:203E0C0003F0FF0307FB14C45C434FF6FF73B4FBF2F2934238BF1A1C802892B2B28005DADF
:203E2C0010F1800F03DA6FF07F0000E07F20F071B17142F20800C4F2090001681F2A4FF03D
:203E4C000000316015D340F2FF13934213D219465208401C93420ED25208401C93420AD2AE
:203E6C005208401C914206D25208401C9142EFD301E01F22B2800F3A4FF600714FF0350EB5
:203E8C001209C8F2A401C4F2090E40EAC2000143CEF8FB1F4FF0000CCEF8FFCFF8BD43F2F6
:203EAC00F2724FF6FD50082141F2300EC2F20002C0F2A4001170C4F2090ECEF80000F8BD91
:203ECC002DE9F04F8346ADF15C0D05F038F90026012804D106F051FA022808BF0126544971
:203EEC000868C0F38150012805D151F80C1C0120090E884006434F494F48504C0978006855
:203F0C00C0F34600206005F01AF9A046012818BFD8F8000004D1D8F80000401CC8F800009D
:203F2C00DFF81CA130B15246FF2107467F1E02F8011BFBD1DBF80020002702F0FF01FF2948
:203F4C0019D094465146DE463B4601250CF0FF02904203D905FA02F4264201D0022064E0F1
:203F6C000CF0FF025EF804CF8B5427435B1C0CF0FF02FF2AECD1092001F0B8FF36480021FC
:203F8C0024220823C0F800B001A806F05BFE4FF0010901AA31488DF81C90494606F04EFED5
:203FAC00D8F8003023B32E4C0025AA4609FA05F0064217D1074204BF05F0FF0141F4C04131
:203FCC0003D01F48405D5BF820101E4802F012FBE8B24FF0FF3106F045F9D8F80030C4F81D
:203FEC0000A001E0042020606D1C241D9D42DDD30AA800213022082306F01CFE0024102182
:20400C000AAB1148114A009406F010FE104A52F80D0C494620F4F85040F4005042F80D0C14
:20402C000C4BC2F8FF1F2046196017B0BDE8F08FB43F0050FC370020801208404C3300206C
:20404C0064370020007FC767843700207D8400000D30094008000940F8370020A0370020F3
:20406C00E83600202DE9DF4F6548DFF88CC1DFF874B1DFF874A1DFF87491DFF87481DFF87A
:20408C0074E1078856480E1C32A313D10168002F5DD058460068014259D050460068014237
:2040AC0004D1484600680088014250D040F221572CA62DE0012E17D0022E48D1002A46D115
:2040CC000168002F43D05846006801423FD050460068014204D1484600680088014236D0F4
:2040EC0040F2325723A613E0A2B90168002F2ED05846006801422AD050460068014204D1F3
:20410C00484600680088014221D040F2275725A6002212E039480168CFB15846006801429F
:20412C0015D050460068014204D148460068008801420CD040F22B5722A6604604680097B6
:20414C0001967746464602923A883068A0470090BDE8DF8F466C65785A6F6E65424C452ECF
:20416C006300C04650616972696E6720737461727465640052652D65737461626C69736846
:20418C0065642070616972696E672066726F6D2073746F72656420626F6E6420696E666F2C
:2041AC002E00C04650616972696E6720636F6D706C65746564207375636365737366756CB8
:2041CC006C792E0050616972696E67206661696C65642E204572726F723A202530327800C0
:2041EC0050C80000400500003C050000440500006CC800008405000064C800004CC80000CF
:20420C0094C800002DE9F04FADF12C0DFCF7ECFF58480468584806885848006804EA000AF2
:20422C005748006804EA00085648D0F8009056480596068855480068089055484C4F056876
:20424C003AA009903FA0079042A0069005F0EEFF0028FBD10020049003A904AA0DF10E0001
:20426C0005F011FB002852D1BDF80E004FF0010B102813D13888BDF80C1088420ED10498E6
:20428C0001884FF6FF728A4205D14088000905D301F002F902E002F051F9834604980028F1
:2042AC0035D0BBF1000F32D00598A8B1BAF1000F12D0B8F1000F03D1B9F8000004420BD040
:2042CC004FF40D70009006980190002302930898079B21463246A847049806F0EBF8059879
:2042EC00A8B1BAF1000F12D0B8F1000F03D1B9F8000004420BD040F237200090099B01930E
:20430C00002202920898079B21463246A847B86806F0BCFC002899D1B86806F083FC83460D
:20432C00FEF70CFC584606F0B9F8F0E74D656D6F7279206465616C6C6F63207061737365AF
:20434C00642000C0466C65785A6F6E65424C452E6300C046417474656D7074696E67206DCE
:20436C00656D6F7279206465616C6C6F632000C0840E002050C8000094C8000040050000C6
:20438C003C05000044050000840500006CC8000064C800002DE9F04F0446594F594EDFF8D9
:2043AC0068B1DFF86CA1DFF86C9120790FF2C808ADF11C0D002829D0401E59D14F4B4E4816
:2043CC001D880168002D53D03868014250D03068014204D1584600680088014248D0484649
:2043EC0040F2EF370568009727A6019660790290A0790390E0790023049057460593434E04
:20440C0006933A8830684346A84731E0424D002128222835284603F0EBF8641D2722284641
:20442C00214602F0F1FB354B33481C880168FCB1386801421CD03068014204D158460068F1
:20444C000088014214D048464FF47A77046800971CA6019622A3029325A20392002704950D
:20446C0056460597294B0697186832884346A04707B0BDE8F08FC046466C65785A6F6E6531
:20448C00424C452E6300C04656616C7565204368616E6765206D73673A2044617461205395
:2044AC006572766963652053747265616D3A20253032783A253032783A253032782E2E2E91
:2044CC0000C046C056616C7565204368616E6765206D73673A2025732025733A20257300A4
:2044EC0044617461205365727669636500C046C0537472696E6700C050C8000094C80000D4
:20450C00400500003C050000440500006CC800008405000068C80000001000202DE9F04F4E
:20452C000446564DDFF858B1564FDFF85CA1DFF85C9120790FF2C408ADF11C0D002829D017
:20454C00401E58D1584629680088002853D03868014250D050460068014204D148460068B7
:20456C000088014247D04C484FF464770568009726A6019660790290A0790390E0790023A1
:20458C000490444F0593424E06933A8830684346A84730E0414E00212822304603F028F8C2
:2045AC00641D27222146304602F02EFB58462968008800B3386801421DD0504600680142B2
:2045CC0004D1484600680088014214D0324840F28937046800971CA5019522A3029325A26E
:2045EC000392002704962B4D0597294B069718682A884346A04707B0BDE8F08F466C657828
:20460C005A6F6E65424C452E6300C04656616C7565204368616E6765206D73673A204461BF
:20462C00746120536572766963652053747265616D3A20253032783A253032783A253032C9
:20464C00782E2E2E00C046C056616C7565204368616E6765206D73673A2025732025733AD8
:20466C002025730044617461205365727669636500C046C0537472696E6700C050C80000F6
:20468C0094C80000400500003C050000440500006CC800008405000068C8000000100020C6
:2046AC002DE9F04F5B4C103C27690246ADF11C0D002F64D04E48DFF84091DFF84081DFF8F7
:2046CC0040E1DFF840B1DFF840A1DFF840C106882CA32ABB47490968002E4AD048460068D4
:2046EC00014246D040460068014204D170460068008801423DD0604640F2CD46056800966B
:20470C0024A201923879029060780390002604960596574606965E463A883068A84728E0FD
:20472C003B48016806B34846006801421CD040460068014204D1704600680088014213D0D1
:20474C00604640F2D246056800961DA60196387902900392002604960596574606965E46F0
:20476C003A883068A8472769397907F1080005F04FFD206905F09EFE00202061607007B01F
:20478C00BDE8F08F466C65785A6F6E65424C452E6300C04653656E74206D657373616765B5
:2047AC002077697468206F70636F6465203078253032782E20417474656D707420256400DA
:2047CC0047617665207570206D6573736167652077697468206F70636F64652030782530AD
:2047EC0032782E205374617475733A20256400C094C8000050C80000400500003C05000094
:20480C00440500006CC800008405000068C800004CC80000900E00202DE9F0438046D8F8A5
:20482C000450D8F808600F46ADF15C0D06F0F6F92978012903D106F0EDF9002096E04FF04F
:20484C00010985F8009006F0E5F91FB90DA805F079FE0DAF387868707878A8707868686074
:20486C00B868A860F868E86038692861387D2875787D6875B87DA875B869A861387F28773C
:20488C00787F00246877B87F2C622C63102185F83C10A87727466F626F63AF62AF6385F8F5
:2048AC002C7085F82D7085F83D70307A01F01EFB404601F023FD404602F0F4F978B92D48B6
:2048CC000068C068014630688847307A01F0E4FB06F0A4F92F7006F09DF9B84645E001A88A
:2048EC0039463022082306F0A5F9CDF818800094214A716805F1580001AB06F097F901A8BE
:20490C0024220823394606F09DF9A8788DF81C9038B905F17400394601AA06F08FF917485C
:20492C002861687838B905F19000394601AA06F085F91348E86001A839462422082306F0BB
:20494C00B1F90697ADF8147005F1AC000D49CDF81C800A2201AB06F0A1F905F144000A4A8C
:20496C0000940421434604F0FFFE404617B0BDE8F083C046D0010010355D0000A1AA0000CF
:20498C0099AA0000DD6D000039A800002DE9F0410646524DB088ADF1200D002804BF05F187
:2049AC000C04A0460DD005F10C040346A62137A2204605F02BFA204605F0BCFE281800F163
:2049CC000C083768B8B205F0B3FB40A20CCA00F067FC40A20CCA00F063FC03F0BDFEA4EBBC
:2049EC00080100902BA23B0CA631404605F00EFA204605F09FFE2218A8682146121B06F0D8
:204A0C002DF8F088D8B106F001F935490A8832B9B1680091F168034622A201911FE0F1687F
:204A2C0000913169019171690291B1690391F1690491316A0591716A0691B3680EE030695E
:204A4C00009070690190B0690290F0690390306A0490002705970697F368B068024620460A
:204A6C00A62105F0D3F9204605F064FE22180D2002F8010B0A2702F8017BA8682146121B2D
:204A8C0005F0ECFF08B0BDE8F081C04623253036752000C05B2025642E25303375205D2087
:204AAC0000C046C07B6576743A20666D743D25702C20617267733D5B307825782C2030781D
:204ACC002578202E2E2E5D7D00C046C0000000000000F03E0000000000408F40C8080020B6
:204AEC008A0500002DE9FE43002A894607464CBF47F6FF74141C002F08BF00205FD03B888B
:204B0C00002B31D03D480088214698422ADA3C4A1088984215DA3B4A168826B929A24846C9
:204B2C0003F03EFD1CE03848019100260268CDF8009036490296154618466A46A847029D3A
:204B4C0013E03348026800E0126822B110898342FAD1121D00E004221268484603F020FDCE
:204B6C00054602E01CA2DAE70025601B26DD388828B1611B48461BA203F012FD4519B868FA
:204B8C00E0B1D7F80480661BB8F1000F0DD0404605F0D0FD401DB04207DC611B484612A2D7
:204BAC00434603F0FDFC4519661B122E06DBBB68611B48460EA203F0F3FC45192846BDE844
:204BCC00FE83C0467B6D6F64756C652D726F70653A25787D00C046C07B6D6F64756C652320
:204BEC0025647D003A2000C0222573222C2000C06C696E652025643A2000C04698C8000090
:204C0C0096C800008A05000080C80000C1940000E81E002030B5054600210322ADF1240D93
:204C2C0007A802F0E5FC3F4801683F480088002829D03E480068014225D03D480068014270
:204C4C0004D13C480068008801421CD028780D2814BF1DA21FA2687800280CBF20A325A34A
:204C6C002F48046840F2113000902BA00190029203930022049205922F4B06921A882F4B3F
:204C8C00186821A3A04728780D380ED0401E18D168788DF81C0003218DF81D0007AA8DF856
:204CAC001E000120FCF7E2FF0BE068788DF81C0003218DF81D0007AA8DF81E000120FDF73A
:204CCC006BF909B030BDC046427574746F6E203100C046C0427574746F6E203000C046C093
:204CEC001B5B33336D72656C65617365641B5B306D00C0461B5B33326D70726573736564C3
:204D0C001B5B306D00C046C0466C65785A6F6E65424C452E6300C046257320257300C046C3
:204D2C0068C8000050C8000094C80000400500003C05000044050000840500006CC8000037
:204D4C002DE9F04F0C4646498A8BADF13C0D84460992487B0D90CE7800964A8B0892888CF1
:204D6C000C900A8B488C079291F80CE00B908E78CA7A088C0692CB8A0A908A7A91F804A0E3
:204D8C0005924A7AC88B04920A7A91F801800392CA798D8A02928A79CF6A01924A79E146F9
:204DAC00A9F54079B9F11D0F10D8DFE809F0554F4D4B49474543403D3B393634320F312FC2
:204DCC002D2B2A24211F1D0F1A191816BCF1270F43DA604603F05AFF13E0DDF834E0F2464E
:204DEC00D046CDF8148016E00C980B900B980A900A98054620E04431086820608888A08044
:204E0C002BE00990099808900898079007980690069B238021E0059804900498039001E0B7
:204E2C003E31E9E7039802900298009006E0019A89310DE06A310BE02846E2E7009E0BE062
:204E4C003831D9E7276008E05A3100E04A311022204601F0D9FE00E026700FB0BDE8F08F0F
:204E6C00C013002090B50146B1F80500ADF11C0D38B1401E03D0401E08BF18A202E01CA299
:204E8C0000E021A20879012826D1364C3648278801680FB33548006801421DD034480068EF
:204EAC00014204D1334800680088014214D02C4840F21C47046800971CA3019322A702977B
:204ECC0025A303930492002705972B4B06972B4F1A88386811A3A04707B090BD496E64691D
:204EEC00636174696F6E7320656E61626C6564004E6F74696669636174696F6E7320656E7D
:204F0C0061626C656400C0464E6F74692F496E642064697361626C656400C046466C6578B6
:204F2C005A6F6E65424C452E6300C04643434344204368616E6765206D73673A2025732073
:204F4C0025733A20257300C044617461205365727669636500C046C053747265616D00C09E
:204F6C0068C8000094C8000050C80000400500003C05000044050000840500006CC80000F5
:204F8C0090B50146B1F80500ADF11C0D38B1401E03D0401E08BF18A202E01CA200E021A2C8
:204FAC000879012826D1364C3448278801680FB33448006801421DD033480068014204D15D
:204FCC00324800680088014214D033484FF46D77046800971CA3019322A7029725A303937C
:204FEC000492002705972B4B0697294F1A88386811A3A04707B090BD496E646963617469BB
:20500C006F6E7320656E61626C6564004E6F74696669636174696F6E7320656E61626C6568
:20502C006400C0464E6F74692F496E642064697361626C656400C046466C65785A6F6E658D
:20504C00424C452E6300C04643434344204368616E6765206D73673A2025732025733A20FC
:20506C00257300C0427574746F6E205365727669636500C0425554544F4E300050C800007B
:20508C0094C80000400500003C050000440500006CC800008405000068C800002DE9F8439B
:2050AC00804605F097FC002100B901213A4D2D1F28680028FCD0DFF8DC90012609F10407D4
:2050CC00FC6A2E6009B105F08BFC3448C4F3072100F10804616005F07DFC0146002001B9F2
:2050EC003046014628680028FCD03F682E6009B105F076FCC7F38441A8F5C060A160B8F523
:20510C00C06F2060B4BF6FF001030223626803EB4003032093FBF0F00918104602290FDBC1
:20512C001E290BDB3F28B9BF521C401C3F22101CE2603029B4BF10391F210DE0E0600BE051
:20514C0010F13F0FACBF401E6FF03F00E06011F1100FACBF10310021216180B24FF47F42A7
:20516C00082330210090484602F0FCFD0096484604214FF40032112302F0F4FD208A0421FA
:20518C004FF4F80212230090484602F0EBFDBDE8F883C04600A00C4004800C407C1D0020FE
:2051AC002DE9F04707467E68D7F8089090460C4605F034FDB56A8246002D65D106F1AC00C1
:2051CC0005F020FD34620025F5775046756205F021FD05F023FD314C82462078012804D01B
:2051EC00042003F0EBFE01202070504605F012FD294A1068414640F480701060384603F0E1
:20520C0015FFB062C0B93846414603F071F8B078D0B9B16806F1740005F01CFDE8B9B56287
:20522C001020F0774946304602F09EF905F0F6FC8246207840B323E0D9F80010886B40F0FC
:20524C0020008863B07810B12846BDE8F087B16806F1740005F0FEFC10B1706ABDE8F0879A
:20526C003846414603F044F81020B5624946F077304602F079F905F0D1FC8246207818B1EC
:20528C00042003F0D5FD2570504605F0C3FC4FF0FF30BDE8F087C04630100040FD370020D6
:2052AC002DE9FC4191EA03084CBF4FF000484FF000084FEAC32545EA52554FEAC2264FEADF
:2052CC0043077F0D11BF45F0004500210020BDE8FC815FF4E06E1EF1FF0E774555D04FEA68
:2052EC00C12343EA50534FEAC0224FEA4104640D11BF43F0004300210020BDE8FC81744582
:20530C0043D0E419A3FB0501A3FB06E7A2FB06631EEB030E57F1000751F10001A2FB05638B
:20532C001EEB060E57F1000751F10001FF1851F10001C01951F100014CBF4FF4806E4FF4BD
:20534C00007E10EB0E0051F1000148BF641C01D4400049415FF44077FF37E41BDEBF002154
:20536C000020BDE8FC8117F58067BC420DD24FEAD02040EA41504FEA41014FEA113141EA0A
:20538C00045141EA0801BDE8FC810020FF21C900C91D090551EA0801BDE8FC81FEB5384BBD
:2053AC0005461888AB8814460F4698422BDA35480088984216DA3448008888B10097002C66
:2053CC0054BF111C47F6FF71304800680191002102912F496A4606461846B047029E18E04D
:2053EC001CA211E02B48006800E0006820B101898B42FAD1001D00E004200268214638466C
:20540C0003F0CEF804E018A22146384603F0C8F80646002C02D4A01B0A2806DB2B68A11B26
:20542C00384614A203F0BCF88619A88978B1002C06D4A86805F07EF9A11B401D884206DC45
:20544C00AB68A11B38460CA203F0AAF886193046FEBDC0467B6D6F64756C652D726F7065F6
:20546C003A25787D00C046C07B6D6F64756C652325647D00257000C028272573272900C090
:20548C0098C8000096C800008A05000080C80000C1940000E81E002030B5344C2069ADF164
:2054AC001C0D00283FD061780830491C617003F00DFB0546162D04D02069042D00F102002F
:2054CC002AD12B482B4D0168288800282BD02A480068014227D029480068014204D1284829
:2054EC000068008801421ED0264A20694FF4976315680093001D11A30193007802906078F2
:20550C00039000220492204B0592204C06921A88206806A3A84706E00088002104F03CFAB3
:20552C002846FFF7BDF807B030BDC046466C65785A6F6E65424C452E6300C046526574726A
:20554C0079696E67206D6573736167652077697468206F70636F6465203078253032782E18
:20556C0020417474656D707420256400800E002054C8000094C80000400500003C050000CB
:20558C004405000068C80000840500006CC8000038482DE9FC4700680068014620208847CA
:2055AC00354DDFF8D8A04FF002080F2000214FF4C072072345F82D0C41F61D5045F8290C4A
:2055CC005046CDF8008002F0CDFB2D4C012644F8046C54F8040C8008FBD3DFF8A890B9F86C
:2055EC00000045F81D6C01281FD0032045F8390C0027276020688008FCD2394650466022F9
:20560C000523009102F0AEFB266020688008FCD345F8216C45F8397C0820C5F8FF0FC5F859
:20562C00F30F45F8396C464620E00027E760032045F8390C276020688008FCD2CDF8008031
:20564C00504639466022052302F08CFB266020688008FCD3202045F8210C45F8397C0824D9
:20566C00C5F8FF4FC5F8F34F45F8396CC9F80460BDE8FC87A001001039400C4000A00C4083
:20568C0038600C407C1D00202DE9F04390460A68D8F800401678814600271D46ADF1140D22
:2056AC003846531C242E0B6053D112F8016F5B1C4C2E0B600ED1AA68E41C24F00304241DED
:2056CC0054F8040C4946FFF769FE2968EF600127091A2960462E1AD1E41C24F00304241D07
:2056EC0054F8040CE41C029024F00304241D54F8040C002749460390AA68ADF8047001A8DB
:20570C00FFF7F0F92968EF600127091A2960532E1FD1E41C24F00304241D54F8040CE86178
:20572C00C8F80040288B0090A968EA69D9F800004346FAF755FFD9F80040002714B1011900
:20574C00C9F80010D8F800402968EF60091A01272960662E0AD12B8B23B9E41D24F0070487
:20576C00083403E0E41C24F00304241D1FB9E9690E700127EF60C8F8004005B0BDE8F083B6
:20578C002DE9F043ADF1140D01F0FCFB384C4FF0030908274FF6FF780026254604F054FD7D
:2057AC0020BB009601A80DF106016A4604F082F8E0B9BDF80400102814D1208ABDF80610BC
:2057CC0088420FD100980188884509D14088C00B08D3042005F12C02014603F003FE01E079
:2057EC0002F06CFE009808B104F070FE608A41082CD320F001002379E178608253EA010234
:20580C0024D073B9E079237A8DF8080005F13E018DF809300A680DF10A031A6089889980C5
:20582C0001E08DF80890607A8DF81000A37A8DF8113002A8FAF758FC38B1236B677023B1FB
:20584C001A6812B1196838468847608A810806D320F002006082304602F0C4F8608AC10812
:20586C009CD320F00400608204F00AFD96E7C046C013002034482DE9F0410D46016833484C
:20588C00008806AF98461646ADF1200DF8B13048006801421BD02F480068014204D12E4896
:2058AC0000680088014212D02E484FF4A8630468009311A20192029503960023049305933C
:2058CC000693274B1A88254B186807A3A047CDF8008038882A4633460190002002F072FB90
:2058EC0008B0BDE8F081C046466C65785A6F6E65424C452E6300C046284342292043686131
:20590C0072616374657269737469632076616C7565206368616E67653A20737663283078A5
:20592C00253034782920706172616D4944282564292E2053656E64696E67206D7367207488
:20594C006F206170702E00C050C8000094C80000400500003C050000440500006CC8000006
:20596C008405000068C8000010B50B46002804BF40F6FF70C0F20F006ED041F25030C5F253
:20598C00000000689A0CC0F38361C0F38F2061D243F30722002A26D55442B2F1FF3F4FEA8D
:2059AC00640415DA400805D1490806BF0121081C4FF6FF70400802F1010205D1490806BF2C
:2059CC000121081C4FF6FF70641E02F10102E9D15B0A08D3400805D1490806BF0121081CD5
:2059EC004FF6FF70521C002A34DD022A4FEA620302F001041DDB4FF6FF7C400040F0010054
:205A0C00844507D2480040F001010F2992BF01200F216046400040F00100844507D2480083
:205A2C0040F001010F2992BF01200F2160465B1EE3D1002C0EDD40004FF6FF7240F001003D
:205A4C00824207D2480040F001010F2992BF01200F21101C40EA014010BD7047F8B504F08D
:205A6C00B9FF314C256805F00C000C2855D0E8082ED22E480068EFF3118780F311882C4E30
:205A8C00B068002105F0BAF87169B269091A8A4238BF002187F3118826480068884217D282
:205AAC002548264A264D036812682868B3FBF2F22018891A05F09EF82868201805F096F8D2
:205ACC000120FCF7FFFB2868201805F09BF825E0280922D21B48690939BF016821F00101E9
:205AEC00016841F0010102460160D2F898004FF0805440F00300C2F89800D4F8B8018069ED
:205B0C00014620208847D4F8B8010F4C806B2168804701202060206800E030BF04F060FFBD
:205B2C0001F02AFFF8BDC0464C1B002040C800007801002038C800003CC8000044C800004C
:205B4C0028C800008C2108402C2009402DE9F043804634480D4601683048008807AF9946E3
:205B6C001646ADF11C0DF8B12F48006801421BD02E480068014204D12D48006800880142A2
:205B8C0012D0274840F24D530468009311A20192029503960023049305930693254B1A8864
:205BAC00254B186807A3A047CDF80090388841462A4633460190012002F004FA07B0BDE8D5
:205BCC00F083C046466C65785A6F6E65424C452E6300C04628434229204368617220636F45
:205BEC006E666967206368616E67653A20737663283078253034782920706172616D494411
:205C0C00282564292E2053656E64696E67206D736720746F206170702E00C04694C800002D
:205C2C0068C8000050C80000400500003C05000044050000840500006CC800002DE9F0433B
:205C4C000646ADF11C0D04F0CDFF03F03FFF4FF000090546CDF8009004F0DAFE30F001005F
:205C6C0002D00098A84202D16FF0040059E070684C4658B1B0F1FF3F05D001A903F02CFD68
:205C8C0030B107464CE04FF0FF3000E02046019004F0A4FF0199012701EB000800E0019398
:205CAC006868019904F0D6FF00282ED003A803F0C9FAD8B9BDF8100002A903F0A9FA88B946
:205CCC00B368BDF80800BDF81210059A984748B1BDF81270F781BDF80800B081059B3361C1
:205CEC004F4612E00599684603F0AEFE0198641CB0F1FF3FD4D00028D2D004F06FFFB8EBBB
:205D0C00000302D001989842C9D2009905F1080003F0DCFF24B1686804F05CFF641EFAD1EE
:205D2C00384607B0BDE8F0832DE9F8430746D7F80880D8F800007D68066C16F4F06F4664DB
:205D4C0025D1F00910D2700950D395F83C00AC6B401E844288BF041C3846214603F012F97C
:205D6C00A86B001BA86308E0A96B384603F00AF9014695F82D00A96318B9A86B002835D14F
:205D8C0001E00020A863384602F0BEFB2EE0F00A0ED3D8F80000002144684160A96B04F093
:205DAC000F04202988BF2021384603F0EBF819E04FF0000902E0A86B401EA863A86B88B1B4
:205DCC003846012103F0DEF8D8F80000446814F00F04C0F80490EED0296B686B491E296357
:205DEC00401E6863EC77384601F0EAFCB0090DD3AE6A5EB13846314603F018F9A862A86AE1
:205E0C00314618B93846091D02F072FABDE8F8832DE9FF472C4C207810BB2C482C4F01687D
:205E2C003888002841D02B48006801423DD02A480068014204D1294800680088014234D098
:205E4C002948046840F21D171BA600250097254B0196234F02951A88386815A3A04724E081
:205E6C004FF0000A002604275546B14603F09CFE804615EB080546EB09067F1EF6D1A80836
:205E8C0067886588B107084304EB8701C1F8CC00681C80B2322818BF608006D15046608007
:205EAC00207004F13C0004F095FE0090BDE8FF87656D672E6300C0464D697373656420641A
:205ECC006561646C696E65000802002050C8000094C80000400500003C0500004405000077
:205EEC006CC800008405000064C800002DE9F04105462E480068EFF3118880F311882C4A40
:205F0C00505D411C0028515549D12A4CA900675C07F03F003F280C4401D0FFF7E7FF60782F
:205F2C0000F03F003F2801D0FFF7E0FF668837F07F0019D1F80911D24FF08054D4F8B8011F
:205F4C00406901463046884704F5DC742068406B0146304688470128F8D120E0164850F860
:205F6C002610012088471AE04FF08054D4F8B801C069014630468847D4F8B801406A014632
:205F8C0030468847D4F8B801C06A01463046884701210A4A0A48116001688908FCD388F3F8
:205FAC001188284603F0E2FEBDE8F08140C80000101E0020C8C400004C1E002028200860C9
:205FCC00282008401FB50C464FF4E02144F0004203F0A0F92046B0F10D01264802D0491EFD
:205FEC0002D1243004F002FE2548264B01681888F0B12548006801421AD0244800680142D9
:20600C0004D1234800680088014211D00D2C0CBF08A20BA21F4840F2D453046800930FA354
:20602C000193164B02921A88134B186807A3A04700901FBD427574746F6E203000C046C0BC
:20604C00427574746F6E203100C046C0466C65785A6F6E65424C452E6300C046427574746D
:20606C006F6E20696E746572727570743A20257300C046C01C0F00206CC80000840500006A
:20608C0050C8000094C80000400500003C0500004405000064C800002D492DE9F041096857
:2060AC00EFF3118881F311882A4B195C4A1E01291A5449D12849800045180E5C6F8836F073
:2060CC007F0019D1F00911D24FF08054D4F8B801806901463846884704F5DC742068406BDE
:2060EC000146384688470228F8D120E01D4850F82710002088471AE04FF08054D4F8B801A8
:20610C00006A014638468847D4F8B801806A014638468847D4F8B801006B014638468847EE
:20612C0001210E4A0E48116001688908FCD306F03F003F2801D0FFF7AFFF687800F03F0029
:20614C003F2801D0FFF7A8FF88F31188BDE8F08140C80000101E0020C8C4000028200860A2
:20616C00282008404C1E00207FB531486138067803F03EFC244D0028E86028D003F058FFE5
:20618C00224A05F16000082102F09EFD2048214C01682088D0B120480068014216D01F48B4
:2061AC000068014204D11E480068008801420DD01E48FE23046800930AA201920823029358
:2061CC00194B1A88174B186802A3A0472E7000907FBDC046454D475F536572766963652E98
:2061EC006300C0465265676973746572656420736572766963652C202564206174747269F2
:20620C00627574657300C046E0190020FCC5000050C8000094C80000400500003C05000075
:20622C00440500006CC800008405000064C80000E50E00207FB52648067803F0EFFB254D9E
:20624C000028E86028D003F0F3FE234A05F16000082102F039FD2148214C01682088D0B16A
:20626C0020480068014216D01F480068014204D11E480068008801420DD01D48FF230468C9
:20628C0000930AA20192082302931A4B1A881A4B186802A3A0472E7000907FBD4163636512
:2062AC006C5F536572766963652E63005265676973746572656420736572766963652C203A
:2062CC002564206174747269627574657300C046840E002000190020D0C5000050C8000024
:2062EC0094C80000400500003C0500004405000064C80000840500006CC800002B4AF0B564
:20630C0038CAADF11C0D02A938C10CCA4FF0805681E80C0084684568D6F8D0112068C968A3
:20632C008847216822488A6B10408863206840F2F271416495F83C0095F83D202168C01091
:20634C000DEB8000806810434863684604F03EFC1A4FDFF864E0D6F8D0112B7FDFF854C02F
:20636C006A7FA87F496857F823705EF82260AA695CF820300D46206801993E433343A84784
:20638C000F490A1F106840F010001060086840F001000860A07BFF2806D0E07BFF2803D0D2
:2063AC00086840F44040086007B0F0BD88C500000DF8FFFF74C500006CC500005CC5000006
:2063CC00301000402DE9F0414568876816460C4604F024FC0346A86B3246214630B1184612
:2063EC0004F018FC4FF0FF30BDE8F081AA6329630024EC7718466C6304F00CFC04F00EFCBE
:20640C001E4E80463078012804D0042002F0D6FD01203070404604F0FDFB1949086840F477
:20642C00007008603968886B40F4FA6088636878002818BF201C1ED1696805F1900004F016
:20644C0009FCB8B9AC633968886B20F4FA60886304F0E4FB0746307818B1042002F0E8FC33
:20646C003470384604F0D6FB1022696B286BEA77401A2863686BBDE8F081C046FD37002007
:20648C00301000409EB523482349244A203008310860234917880968D7B1224A12681142AA
:2064AC0016D0214A1268114204D1204A1268128811420DD01E4A40F20F171468009709A3B0
:2064CC0001931C4F1C4B029018683A8801A3A0479EBDC046454D475F536572766963652E53
:2064EC006300C046526567697374657265642063616C6C6261636B7320746F206170706C89
:20650C0069636174696F6E2E2053747275637420257000C0840E0020E019002094C8000019
:20652C0050C80000400500003C0500004405000064C80000840500006CC800003EB5017813
:20654C000125913902D01F3925D027E040780E2824D12048204C01682088F8B11F480068D9
:20656C0001421BD01E480068014204D11D4800680088014212D01E4840F243430468009364
:20658C000BA2019200230293184B1A88164B186803A3A04702E0FCF717FC054628463EBDE8
:2065AC00466C65785A6F6E65424C452E6300C04648434920436F6D6D616E6420436F6D70D8
:2065CC006C657465204576656E742072656365697665640050C8000094C8000040050000C3
:2065EC003C050000440500006CC800008405000064C80000F8B50D46EEB2290824BF2749F8
:20660C004D40274BB400DFF89CC0195900EA05020CEA020200F4E02C85EA0107BCF5E02FF4
:20662C0000EA070721EA0001C7F3006742EA010201D1510E14D300F4E0210F4310D002F4C5
:20664C00E027B7F5A02707D0B7F5803704BF22F4003242F4A02203E022F4803242F4C022B4
:20666C001A51114CC10D04D3C5F38052A4F180018A55000E11D304F0D1FA290E03D2012242
:20668C000021B24002E00122B24011465034236893431943216004F0BDFAF8BD006000A06B
:2066AC0000100840007F077F802002401FB58DF80C002448016824480088E0B123480068FD
:2066CC00014218D022480068014204D121480068008801420FD0224840F2F7430468009349
:2066EC000CA201929DF80C001C4B02901A881A4B186804A3A047032003A9012202F020F9A1
:20670C0000901FBD466C65785A6F6E65424C452E6300C04628434229204741502053746156
:20672C007465206368616E67653A2025642C2053656E64696E67206D736720746F2061709C
:20674C00702E00C050C8000094C80000400500003C050000440500006CC8000084050000CF
